:100000000C945D000C9485000C9485000C94850084
:100010000C9485000C9485000C9485000C9485004C
:100020000C9485000C9485000C9485000C9485003C
:100030000C9485000C9485000C9485000C9485002C
:100040000C94B4020C9485000C9482020C945C0213
:100050000C9485000C9485000C9485000C9485000C
:100060000C9485000C9485000000000024002700FB
:100070002A0000000000250028002B0004040404CE
:100080000404040402020202020203030303030342
:10009000010204081020408001020408102001021F
:1000A00004081020000000080002010000030407FB
:1000B00000000000000000001F0411241FBECFEF4D
:1000C000D8E0DEBFCDBF11E0A0E0B1E0ECEEF8E09B
:1000D00002C005900D92A633B107D9F721E0A6E33F
:1000E000B1E001C01D92AC3DB207E1F710E0CDE5F3
:1000F000D0E004C02197FE010E946E04CC35D107E8
:10010000C9F70E94FE020C9474040C940000E1EB09
:10011000F0E02491EDE9F0E09491E9E8F0E0E49179
:10012000EE23C9F0222339F0233001F1A8F4213065
:1001300019F1223029F1F0E0EE0FFF1FEE58FF4FCA
:10014000A591B4912FB7F894EC91811126C09095A8
:100150009E239C932FBF08952730A9F02830C9F023
:10016000243049F7209180002F7D03C0209180002A
:100170002F7720938000DFCF24B52F7724BDDBCFEE
:1001800024B52F7DFBCF2091B0002F772093B000B6
:10019000D2CF2091B0002F7DF9CF9E2BDACFAF9236
:1001A000BF92CF92DF92EF92FF920F931F93CF9364
:1001B000DF936C017B018B01040F151FEB015E01C6
:1001C000AE18BF08C017D10759F06991D601ED915B
:1001D000FC910190F081E02DC6010995892B79F7FA
:1001E000C501DF91CF911F910F91FF90EF90DF90AC
:1001F000CF90BF90AF900895FC01538D448D252F73
:1002000030E0842F90E0821B930B541710F0CF96B0
:10021000089501970895FC01918D828D981761F0E2
:10022000A28DAE0FBF2FB11D5D968C91928D9F5FF9
:100230009F73928F90E008958FEF9FEF0895FC01D8
:10024000918D828D981731F0828DE80FF11D858D8B
:1002500090E008958FEF9FEF0895FC01918D228D1E
:10026000892F90E0805C9F4F821B91098F739927A3
:1002700008958FE391E00E942D0121E0892B09F47C
:1002800020E0822F089580E090E0892B29F00E94E1
:10029000390181110C9400000895FC01A48DA80F70
:1002A000B92FB11DA35ABF4F2C91848D90E00196B8
:1002B0008F739927848FA689B7892C93A089B189D8
:1002C0008C91837080648C93938D848D981306C079
:1002D0000288F389E02D80818F7D80830895EF92DD
:1002E000FF920F931F93CF93DF93EC0181E0888FF0
:1002F0009B8D8C8D98131AC0E889F989808185FFC0
:1003000015C09FB7F894EE89FF896083E889F98961
:1003100080818370806480839FBF81E090E0DF9163
:10032000CF911F910F91FF90EF900895F62E0B8DB6
:1003300010E00F5F1F4F0F731127E02E8C8D8E1171
:100340000CC00FB607FCFACFE889F989808185FFD8
:10035000F5CFCE010E944D01F1CFEB8DEC0FFD2FBB
:10036000F11DE35AFF4FF0829FB7F8940B8FEA8993
:10037000FB8980818062CFCFCF93DF93EC01888DA2
:100380008823B9F0AA89BB89E889F9898C9185FD10
:1003900003C0808186FD0DC00FB607FCF7CF8C919E
:1003A00085FFF2CF808185FFEDCFCE010E944D0108
:1003B000E9CFDF91CF910895FC0101900020E9F78A
:1003C0003197AF01481B590BBC018FE391E00C94AE
:1003D000CF008F929F92AF92BF920F931F93CF93B4
:1003E000DF93CDB7DEB7A1970FB6F894DEBF0FBE8F
:1003F000CDBF19A2423008F44AE08E010F5D1F4FB5
:10040000842E912CB12CA12CA50194010E944C04A6
:10041000E62FB901CA01EA30F4F4E05DD801EE93A9
:100420008D01232B242B252B79F790E080E010976A
:1004300019F0CD010E94DC01A1960FB6F894DEBF41
:100440000FBECDBFDF91CF911F910F91BF90AF90A5
:100450009F908F900895E95CE1CFCF92DF92EF9269
:10046000FF92CF93DF936B017C016DE28FE391E00C
:100470000E946F01EC0166277727CB016C197D097B
:100480008E099F094AE00E94E9018C0F9D1FDF91B0
:10049000CF91FF90EF90DF90CF900895CF93DF93AF
:1004A0000E94DC01EC0182E191E00E94DC018C0FF2
:1004B0009D1FDF91CF9108951F920F920FB60F925B
:1004C00011242F933F934F935F936F937F938F9359
:1004D0009F93AF93BF93EF93FF938FE391E00E94BD
:1004E0004D01FF91EF91BF91AF919F918F917F91BE
:1004F0006F915F914F913F912F910F900FBE0F9091
:100500001F9018951F920F920FB60F9211242F93E0
:100510008F939F93EF93FF93E0914F01F0915001E0
:100520008081E0915501F091560182FD1BC09081C0
:10053000809158018F5F8F7320915901821741F08C
:10054000E0915801F0E0E15CFE4F958F80935801F7
:10055000FF91EF919F918F912F910F900FBE0F9070
:100560001F9018958081F4CF1F920F920FB60F92B3
:1005700011242F933F938F939F93AF93BF938091B9
:100580003B0190913C01A0913D01B0913E01309121
:100590003A0123E0230F2D3758F50196A11DB11D17
:1005A00020933A0180933B0190933C01A0933D013D
:1005B000B0933E018091360190913701A0913801AE
:1005C000B09139010196A11DB11D80933601909320
:1005D0003701A0933801B0933901BF91AF919F913A
:1005E0008F913F912F910F900FBE0F901F901895F4
:1005F00026E8230F0296A11DB11DD2CF789484B5B1
:10060000826084BD84B5816084BD85B5826085BD0E
:1006100085B5816085BD80916E00816080936E009C
:10062000109281008091810082608093810080918E
:10063000810081608093810080918000816080933F
:1006400080008091B10084608093B1008091B000FF
:1006500081608093B00080917A00846080937A00FA
:1006600080917A00826080937A0080917A00816024
:1006700080937A0080917A00806880937A0010924B
:10068000C100EDE9F0E02491E9E8F0E084918823ED
:1006900099F090E0880F991FFC01E859FF4FA59150
:1006A000B491FC01EE58FF4F859194918FB7F89467
:1006B000EC91E22BEC938FBFE0914F01F091500150
:1006C00082E08083E0914B01F0914C011082E09137
:1006D0004D01F0914E018FEC808310925701E09113
:1006E0005301F091540186E08083E0915101F09133
:1006F0005201808180618083E0915101F09152012B
:10070000808188608083E0915101F0915201808165
:1007100080688083E0915101F091520180818F7D4A
:10072000808385E191E00E94DC014AE065E070E0B1
:1007300080E090E00E94E90182E191E00E94DC010A
:100740008CE191E00E94DC014AE065E070E080E02D
:1007500090E00E94E90182E191E00E94DC01C12C5D
:10076000D12C7601C3944AE0C701B6010E94E90189
:1007700083E291E00E944E0281E00E9487008EE2B7
:1007800091E00E944E028FB7F89440913B01509146
:100790003C0160913D0170913E018FBF2FB7F894ED
:1007A00080913B0190913C01A0913D01B0913E01AF
:1007B0002FBF841B950BA60BB70B803D9740A1055F
:1007C000B10560F380E00E94870081E391E00E9420
:1007D0004E028FB7F89440913B0150913C016091DB
:1007E0003D0170913E018FBF2FB7F89480913B017E
:1007F00090913C01A0913D01B0913E012FBF841B1F
:10080000950BA60BB70B803D9740A105B10560F392
:100810002FEFC21AD20AE20AF20A86E0C816D10401
:10082000E104F10409F09FCFC0E0D0E02097F1F39C
:100830000E9439018823D1F30E940000F7CFEFE333
:10084000F1E01382128288EE93E0A0E0B0E08483AE
:100850009583A683B78384E091E09183808385ECC0
:1008600090E09587848784EC90E09787868780EC7A
:1008700090E0918B808B81EC90E0938B828B82EC6B
:1008800090E0958B848B86EC90E0978B868B118E15
:10089000128E138E148E0895A1E21A2EAA1BBB1B72
:1008A000FD010DC0AA1FBB1FEE1FFF1FA217B3073C
:1008B000E407F50720F0A21BB30BE40BF50B661F52
:1008C000771F881F991F1A9469F760957095809516
:1008D00090959B01AC01BD01CF010895EE0FFF1F64
:0C08E0000590F491E02D0994F894FFCFEE
:1008EC00000000006F01CF00FC00BC012D010B01CA
:1008FC001F010D0A00486578203D2000496E7420C8
:10090C003D20002D2D2D2D2D2D2D2D2D2D004F4E1F
:06091C00004F46460000FA
:00000001FF
